{
  "contractName": "BookVotes",
  "abi": [
    {
      "inputs": [],
      "stateMutability": "nonpayable",
      "type": "constructor"
    },
    {
      "inputs": [
        {
          "internalType": "uint256",
          "name": "bookId",
          "type": "uint256"
        },
        {
          "internalType": "uint8",
          "name": "cl",
          "type": "uint8"
        }
      ],
      "name": "addGlobalVote",
      "outputs": [],
      "stateMutability": "nonpayable",
      "type": "function"
    },
    {
      "inputs": [],
      "name": "getVotes",
      "outputs": [
        {
          "internalType": "uint256[]",
          "name": "",
          "type": "uint256[]"
        },
        {
          "internalType": "uint256[]",
          "name": "",
          "type": "uint256[]"
        },
        {
          "internalType": "uint256[]",
          "name": "",
          "type": "uint256[]"
        },
        {
          "internalType": "uint256[]",
          "name": "",
          "type": "uint256[]"
        },
        {
          "internalType": "uint256[]",
          "name": "",
          "type": "uint256[]"
        }
      ],
      "stateMutability": "view",
      "type": "function"
    },
    {
      "inputs": [
        {
          "internalType": "uint256",
          "name": "",
          "type": "uint256"
        }
      ],
      "name": "great",
      "outputs": [
        {
          "internalType": "uint256",
          "name": "",
          "type": "uint256"
        }
      ],
      "stateMutability": "view",
      "type": "function"
    },
    {
      "inputs": [
        {
          "internalType": "uint256",
          "name": "",
          "type": "uint256"
        }
      ],
      "name": "ids",
      "outputs": [
        {
          "internalType": "uint256",
          "name": "",
          "type": "uint256"
        }
      ],
      "stateMutability": "view",
      "type": "function"
    },
    {
      "inputs": [
        {
          "internalType": "uint256",
          "name": "",
          "type": "uint256"
        }
      ],
      "name": "idsIndex",
      "outputs": [
        {
          "internalType": "uint256",
          "name": "",
          "type": "uint256"
        }
      ],
      "stateMutability": "view",
      "type": "function"
    },
    {
      "inputs": [
        {
          "internalType": "uint256",
          "name": "",
          "type": "uint256"
        }
      ],
      "name": "illegal",
      "outputs": [
        {
          "internalType": "uint256",
          "name": "",
          "type": "uint256"
        }
      ],
      "stateMutability": "view",
      "type": "function"
    },
    {
      "inputs": [
        {
          "internalType": "uint256",
          "name": "",
          "type": "uint256"
        }
      ],
      "name": "ok",
      "outputs": [
        {
          "internalType": "uint256",
          "name": "",
          "type": "uint256"
        }
      ],
      "stateMutability": "view",
      "type": "function"
    },
    {
      "inputs": [
        {
          "internalType": "uint256",
          "name": "",
          "type": "uint256"
        }
      ],
      "name": "poor",
      "outputs": [
        {
          "internalType": "uint256",
          "name": "",
          "type": "uint256"
        }
      ],
      "stateMutability": "view",
      "type": "function"
    },
    {
      "inputs": [
        {
          "internalType": "uint256[]",
          "name": "bookIds",
          "type": "uint256[]"
        },
        {
          "internalType": "uint8[]",
          "name": "classifications",
          "type": "uint8[]"
        }
      ],
      "name": "voteBooks",
      "outputs": [],
      "stateMutability": "nonpayable",
      "type": "function"
    }
  ],
  "bytecode": "0x608060405234801561001057600080fd5b50d3801561001d57600080fd5b50d2801561002a57600080fd5b50600260009080600181540180825580915050600190039060005260206000200160009091909190915055611450806100646000396000f3fe608060405234801561001057600080fd5b50d3801561001d57600080fd5b50d2801561002a57600080fd5b50600436106100ad5760003560e01c806380972a7d1161008057806380972a7d146101505780638f2e4e7414610180578063a954c2091461019c578063fac333ac146101cc578063fc0ff0a5146101fc576100ad565b80630dc96015146100b25780633af690be146100d457806351bab156146100f05780637e49c89214610120575b600080fd5b6100ba61022c565b6040516100cb9594939291906110aa565b60405180910390f35b6100ee60048036038101906100e99190610f0e565b6103e9565b005b61010a60048036038101906101059190610f86565b6108f7565b6040516101179190611140565b60405180910390f35b61013a60048036038101906101359190610f86565b61091b565b6040516101479190611140565b60405180910390f35b61016a60048036038101906101659190610f86565b61093f565b6040516101779190611140565b60405180910390f35b61019a60048036038101906101959190610fb3565b610963565b005b6101b660048036038101906101b19190610f86565b610bb6565b6040516101c39190611140565b60405180910390f35b6101e660048036038101906101e19190610f86565b610bda565b6040516101f39190611140565b60405180910390f35b61021660048036038101906102119190610f86565b610bfe565b6040516102239190611140565b60405180910390f35b6060806060806060600260046006600560078480548060200260200160405190810160405280929190818152602001828054801561028957602002820191906000526020600020905b815481526020019060010190808311610275575b50505050509450838054806020026020016040519081016040528092919081815260200182805480156102db57602002820191906000526020600020905b8154815260200190600101908083116102c7575b505050505093508280548060200260200160405190810160405280929190818152602001828054801561032d57602002820191906000526020600020905b815481526020019060010190808311610319575b505050505092508180548060200260200160405190810160405280929190818152602001828054801561037f57602002820191906000526020600020905b81548152602001906001019080831161036b575b50505050509150808054806020026020016040519081016040528092919081815260200182805480156103d157602002820191906000526020600020905b8154815260200190600101908083116103bd575b50505050509050945094509450945094509091929394565b60001515600160003373ffffffffffffffffffffffffffffffffffffffff1673ffffffffffffffffffffffffffffffffffffffff16815260200190815260200160002060010160009054906101000a900460ff1615151415610652576000339080600181540180825580915050600190039060005260206000200160009091909190916101000a81548173ffffffffffffffffffffffffffffffffffffffff021916908373ffffffffffffffffffffffffffffffffffffffff16021790555060018060003373ffffffffffffffffffffffffffffffffffffffff1673ffffffffffffffffffffffffffffffffffffffff16815260200190815260200160002060010160006101000a81548160ff02191690831515021790555060005b825181101561064c5760018060003373ffffffffffffffffffffffffffffffffffffffff1673ffffffffffffffffffffffffffffffffffffffff168152602001908152602001600020600001600085848151811061056657610565611340565b5b6020026020010151815260200190815260200160002060000160006101000a81548160ff0219169083151502179055508181815181106105a9576105a8611340565b5b6020026020010151600160003373ffffffffffffffffffffffffffffffffffffffff1673ffffffffffffffffffffffffffffffffffffffff168152602001908152602001600020600001600085848151811061060857610607611340565b5b6020026020010151815260200190815260200160002060000160016101000a81548160ff021916908360ff1602179055508080610644906112c8565b915050610505565b506108f3565b60005b82518110156108f157600082828151811061067357610672611340565b5b60200260200101519050600084838151811061069257610691611340565b5b60200260200101519050600160003373ffffffffffffffffffffffffffffffffffffffff1673ffffffffffffffffffffffffffffffffffffffff168152602001908152602001600020600001600082815260200190815260200160002060000160009054906101000a900460ff16156107f457600160003373ffffffffffffffffffffffffffffffffffffffff1673ffffffffffffffffffffffffffffffffffffffff168152602001908152602001600020600001600082815260200190815260200160002060000160019054906101000a900460ff1660ff168260ff16146107805761077f8183610c16565b5b81600160003373ffffffffffffffffffffffffffffffffffffffff1673ffffffffffffffffffffffffffffffffffffffff168152602001908152602001600020600001600083815260200190815260200160002060000160016101000a81548160ff021916908360ff1602179055506108d2565b81600160003373ffffffffffffffffffffffffffffffffffffffff1673ffffffffffffffffffffffffffffffffffffffff168152602001908152602001600020600001600083815260200190815260200160002060000160016101000a81548160ff021916908360ff16021790555060018060003373ffffffffffffffffffffffffffffffffffffffff1673ffffffffffffffffffffffffffffffffffffffff168152602001908152602001600020600001600083815260200190815260200160002060000160006101000a81548160ff0219169083151502179055505b6108dc8183610963565b505080806108e9906112c8565b915050610655565b505b5050565b6006818154811061090757600080fd5b906000526020600020016000915090505481565b6004818154811061092b57600080fd5b906000526020600020016000915090505481565b6005818154811061094f57600080fd5b906000526020600020016000915090505481565b600060036000848152602001908152602001600020541415610a7a5760028290806001815401808255809150506001900390600052602060002001600090919091909150556004600090806001815401808255809150506001900390600052602060002001600090919091909150556005600090806001815401808255809150506001900390600052602060002001600090919091909150556006600090806001815401808255809150506001900390600052602060002001600090919091909150556007600090806001815401808255809150506001900390600052602060002001600090919091909150556001600280549050610a629190611222565b60036000848152602001908152602001600020819055505b600060036000848152602001908152602001600020549050600460ff168260ff161415610ada5760078181548110610ab557610ab4611340565b5b906000526020600020016000815480929190610ad0906112c8565b9190505550610bb1565b600360ff168260ff161415610b225760058181548110610afd57610afc611340565b5b906000526020600020016000815480929190610b18906112c8565b9190505550610bb0565b600260ff168260ff161415610b6a5760068181548110610b4557610b44611340565b5b906000526020600020016000815480929190610b60906112c8565b9190505550610baf565b600160ff168260ff161415610bae5760048181548110610b8d57610b8c611340565b5b906000526020600020016000815480929190610ba8906112c8565b91905055505b5b5b5b505050565b60078181548110610bc657600080fd5b906000526020600020016000915090505481565b60028181548110610bea57600080fd5b906000526020600020016000915090505481565b60036020528060005260406000206000915090505481565b6000600360008481526020019081526020016000205411610c6c576040517f08c379a0000000000000000000000000000000000000000000000000000000008152600401610c6390611120565b60405180910390fd5b600060036000848152602001908152602001600020549050600460ff168260ff161415610ccc5760078181548110610ca757610ca6611340565b5b906000526020600020016000815480929190610cc29061126d565b9190505550610da3565b600360ff168260ff161415610d145760058181548110610cef57610cee611340565b5b906000526020600020016000815480929190610d0a9061126d565b9190505550610da2565b600260ff168260ff161415610d5c5760068181548110610d3757610d36611340565b5b906000526020600020016000815480929190610d529061126d565b9190505550610da1565b600160ff168260ff161415610da05760048181548110610d7f57610d7e611340565b5b906000526020600020016000815480929190610d9a9061126d565b91905055505b5b5b5b505050565b6000610dbb610db684611180565b61115b565b90508083825260208201905082856020860282011115610dde57610ddd6113a3565b5b60005b85811015610e0e5781610df48882610ee4565b845260208401935060208301925050600181019050610de1565b5050509392505050565b6000610e2b610e26846111ac565b61115b565b90508083825260208201905082856020860282011115610e4e57610e4d6113a3565b5b60005b85811015610e7e5781610e648882610ef9565b845260208401935060208301925050600181019050610e51565b5050509392505050565b600082601f830112610e9d57610e9c61139e565b5b8135610ead848260208601610da8565b91505092915050565b600082601f830112610ecb57610eca61139e565b5b8135610edb848260208601610e18565b91505092915050565b600081359050610ef3816113ec565b92915050565b600081359050610f0881611403565b92915050565b60008060408385031215610f2557610f246113ad565b5b600083013567ffffffffffffffff811115610f4357610f426113a8565b5b610f4f85828601610e88565b925050602083013567ffffffffffffffff811115610f7057610f6f6113a8565b5b610f7c85828601610eb6565b9150509250929050565b600060208284031215610f9c57610f9b6113ad565b5b6000610faa84828501610ee4565b91505092915050565b60008060408385031215610fca57610fc96113ad565b5b6000610fd885828601610ee4565b9250506020610fe985828601610ef9565b9150509250929050565b6000610fff838361108c565b60208301905092915050565b6000611016826111e8565b6110208185611200565b935061102b836111d8565b8060005b8381101561105c5781516110438882610ff3565b975061104e836111f3565b92505060018101905061102f565b5085935050505092915050565b6000611076601b83611211565b9150611081826113c3565b602082019050919050565b61109581611256565b82525050565b6110a481611256565b82525050565b600060a08201905081810360008301526110c4818861100b565b905081810360208301526110d8818761100b565b905081810360408301526110ec818661100b565b90508181036060830152611100818561100b565b90508181036080830152611114818461100b565b90509695505050505050565b6000602082019050818103600083015261113981611069565b9050919050565b6000602082019050611155600083018461109b565b92915050565b6000611165611176565b90506111718282611297565b919050565b6000604051905090565b600067ffffffffffffffff82111561119b5761119a61136f565b5b602082029050602081019050919050565b600067ffffffffffffffff8211156111c7576111c661136f565b5b602082029050602081019050919050565b6000819050602082019050919050565b600081519050919050565b6000602082019050919050565b600082825260208201905092915050565b600082825260208201905092915050565b600061122d82611256565b915061123883611256565b92508282101561124b5761124a611311565b5b828203905092915050565b6000819050919050565b600060ff82169050919050565b600061127882611256565b9150600082141561128c5761128b611311565b5b600182039050919050565b6112a0826113b2565b810181811067ffffffffffffffff821117156112bf576112be61136f565b5b80604052505050565b60006112d382611256565b91507fffffffffffffffffffffffffffffffffffffffffffffffffffffffffffffffff82141561130657611305611311565b5b600182019050919050565b7f4e487b7100000000000000000000000000000000000000000000000000000000600052601160045260246000fd5b7f4e487b7100000000000000000000000000000000000000000000000000000000600052603260045260246000fd5b7f4e487b7100000000000000000000000000000000000000000000000000000000600052604160045260246000fd5b600080fd5b600080fd5b600080fd5b600080fd5b6000601f19601f8301169050919050565b7f63616e6e6f742072656d6f766520766f746520666f7220626f6f6b0000000000600082015250565b6113f581611256565b811461140057600080fd5b50565b61140c81611260565b811461141757600080fd5b5056fea26474726f6e58221220a61beb84ffd34193562d32ccf1cbf79e2b123628a1082544b4ef62fa63719e2664736f6c63430008060033",
  "source": "// SPDX-License-Identifier: MIT\n\npragma solidity >=0.7.0 <0.9.0;\n\nuint8 constant ILLEGAL = 1;\nuint8 constant POOR = 2;\nuint8 constant OK = 3;\nuint8 constant GREAT = 4;\n\nstruct BookVote {\n    bool initialized;\n    uint8 classification;\n}\n\nstruct UserVotes {\n    mapping(uint256 => BookVote) data;\n    bool initialized;\n}\n\ncontract BookVotes {\n    // user Data\n    address[] all_addresses;\n    mapping(address => UserVotes) user_votes;\n\n    // all Data\n    uint256[] public ids;\n    // map[id] index\n    mapping(uint256 => uint256) public idsIndex;\n    uint256[] public illegal;\n    uint256[] public ok;\n    uint256[] public poor;\n    uint256[] public great;\n\n    constructor() {\n        ids.push(0);\n    }\n\n    function addGlobalVote(uint256 bookId, uint8 cl) public {\n        if (idsIndex[bookId] == 0) {\n            ids.push(bookId);\n            illegal.push(0);\n            ok.push(0);\n            poor.push(0);\n            great.push(0);\n            idsIndex[bookId] = ids.length - 1;\n        }\n\n        uint index = idsIndex[bookId];\n\n        if (cl == GREAT) {\n            great[index]++;\n        } else if (cl == OK) {\n            ok[index]++;\n        } else if (cl == POOR) {\n            poor[index]++;\n        } else if (cl == ILLEGAL) {\n            illegal[index]++;\n        }\n    }\n\n    function removeGlobalVote(uint256 bookId, uint8 cl) private {\n        require(idsIndex[bookId] > 0, \"cannot remove vote for book\");\n\n        uint index = idsIndex[bookId];\n\n        if (cl == GREAT) {\n            great[index]--;\n        } else if (cl == OK) {\n            ok[index]--;\n        } else if (cl == POOR) {\n            poor[index]--;\n        } else if (cl == ILLEGAL) {\n            illegal[index]--;\n        }\n    }\n\n    function voteBooks(\n        uint256[] memory bookIds,\n        uint8[] memory classifications\n    ) public {\n        if (user_votes[msg.sender].initialized == false) {\n            all_addresses.push(msg.sender);\n            user_votes[msg.sender].initialized = true;\n            for (uint i = 0; i < bookIds.length; i++) {\n                user_votes[msg.sender].data[bookIds[i]].initialized = true;\n                user_votes[msg.sender]\n                    .data[bookIds[i]]\n                    .classification = classifications[i];\n            }\n        } else {\n            // user is already in the mapping\n            for (uint i = 0; i < bookIds.length; i++) {\n                uint8 cl = classifications[i];\n                uint256 book = bookIds[i];\n\n                if (user_votes[msg.sender].data[book].initialized) {\n                    // book has already been voted upon in the past\n                    if (\n                        cl != user_votes[msg.sender].data[book].classification\n                    ) {\n                        // the book classification has been updated\n                        // TODO: Runs allVotes\n                        removeGlobalVote(book, cl);\n                    }\n                    user_votes[msg.sender].data[book].classification = cl;\n                } else {\n                    user_votes[msg.sender].data[book].classification = cl;\n                    user_votes[msg.sender].data[book].initialized = true;\n                }\n                addGlobalVote(book, cl);\n            }\n        }\n    }\n\n    function getVotes()\n        public\n        view\n        returns (\n            uint256[] memory,\n            uint256[] memory,\n            uint256[] memory,\n            uint256[] memory,\n            uint256[] memory\n        )\n    {\n        return (ids, illegal, poor, ok, great);\n    }\n}\n",
  "sourcePath": "/Users/simbadmarino/Documents/Work/TRONDAO/solidity/books/tronbox/contracts/BookVotes.sol",
  "compiler": {
    "name": "solc",
    "version": "0.8.6+commit.0e36fba0.mod.Emscripten.clang"
  },
  "schemaVersion": "2.0.1",
  "updatedAt": "2024-04-26T23:14:37.314Z"
}